{
  "_format": "hh-sol-artifact-1",
  "contractName": "CharityDonation",
  "sourceName": "contracts/CharityDonation.sol",
  "abi": [
    {
      "inputs": [],
      "stateMutability": "nonpayable",
      "type": "constructor"
    },
    {
      "anonymous": false,
      "inputs": [
        {
          "indexed": true,
          "internalType": "address",
          "name": "charity",
          "type": "address"
        },
        {
          "indexed": false,
          "internalType": "string",
          "name": "name",
          "type": "string"
        }
      ],
      "name": "CharityRegistered",
      "type": "event"
    },
    {
      "anonymous": false,
      "inputs": [
        {
          "indexed": true,
          "internalType": "address",
          "name": "donor",
          "type": "address"
        },
        {
          "indexed": true,
          "internalType": "address",
          "name": "charity",
          "type": "address"
        },
        {
          "indexed": false,
          "internalType": "uint256",
          "name": "amount",
          "type": "uint256"
        }
      ],
      "name": "DonationReceived",
      "type": "event"
    },
    {
      "anonymous": false,
      "inputs": [
        {
          "indexed": true,
          "internalType": "uint256",
          "name": "requestId",
          "type": "uint256"
        },
        {
          "indexed": true,
          "internalType": "address",
          "name": "charity",
          "type": "address"
        },
        {
          "indexed": false,
          "internalType": "uint256",
          "name": "amount",
          "type": "uint256"
        }
      ],
      "name": "FundRequestCreated",
      "type": "event"
    },
    {
      "anonymous": false,
      "inputs": [
        {
          "indexed": true,
          "internalType": "uint256",
          "name": "requestId",
          "type": "uint256"
        },
        {
          "indexed": false,
          "internalType": "uint256",
          "name": "amount",
          "type": "uint256"
        }
      ],
      "name": "FundRequestExecuted",
      "type": "event"
    },
    {
      "anonymous": false,
      "inputs": [
        {
          "indexed": true,
          "internalType": "uint256",
          "name": "requestId",
          "type": "uint256"
        },
        {
          "indexed": true,
          "internalType": "address",
          "name": "voter",
          "type": "address"
        },
        {
          "indexed": false,
          "internalType": "bool",
          "name": "approved",
          "type": "bool"
        }
      ],
      "name": "FundRequestVoted",
      "type": "event"
    },
    {
      "anonymous": false,
      "inputs": [
        {
          "indexed": true,
          "internalType": "address",
          "name": "charity",
          "type": "address"
        },
        {
          "indexed": false,
          "internalType": "uint256",
          "name": "amount",
          "type": "uint256"
        }
      ],
      "name": "FundsWithdrawn",
      "type": "event"
    },
    {
      "inputs": [
        {
          "internalType": "address",
          "name": "",
          "type": "address"
        }
      ],
      "name": "charities",
      "outputs": [
        {
          "internalType": "string",
          "name": "name",
          "type": "string"
        },
        {
          "internalType": "address payable",
          "name": "wallet",
          "type": "address"
        },
        {
          "internalType": "uint256",
          "name": "totalDonations",
          "type": "uint256"
        },
        {
          "internalType": "uint256",
          "name": "totalWithdrawn",
          "type": "uint256"
        },
        {
          "internalType": "bool",
          "name": "isRegistered",
          "type": "bool"
        }
      ],
      "stateMutability": "view",
      "type": "function"
    },
    {
      "inputs": [
        {
          "internalType": "uint256",
          "name": "_amount",
          "type": "uint256"
        }
      ],
      "name": "createFundRequest",
      "outputs": [],
      "stateMutability": "nonpayable",
      "type": "function"
    },
    {
      "inputs": [
        {
          "internalType": "address",
          "name": "_charity",
          "type": "address"
        }
      ],
      "name": "donate",
      "outputs": [],
      "stateMutability": "payable",
      "type": "function"
    },
    {
      "inputs": [
        {
          "internalType": "address",
          "name": "",
          "type": "address"
        },
        {
          "internalType": "address",
          "name": "",
          "type": "address"
        }
      ],
      "name": "donations",
      "outputs": [
        {
          "internalType": "uint256",
          "name": "",
          "type": "uint256"
        }
      ],
      "stateMutability": "view",
      "type": "function"
    },
    {
      "inputs": [
        {
          "internalType": "uint256",
          "name": "_requestId",
          "type": "uint256"
        }
      ],
      "name": "executeFundRequest",
      "outputs": [],
      "stateMutability": "nonpayable",
      "type": "function"
    },
    {
      "inputs": [],
      "name": "fundRequestCount",
      "outputs": [
        {
          "internalType": "uint256",
          "name": "",
          "type": "uint256"
        }
      ],
      "stateMutability": "view",
      "type": "function"
    },
    {
      "inputs": [
        {
          "internalType": "uint256",
          "name": "",
          "type": "uint256"
        }
      ],
      "name": "fundRequests",
      "outputs": [
        {
          "internalType": "address",
          "name": "charity",
          "type": "address"
        },
        {
          "internalType": "uint256",
          "name": "amount",
          "type": "uint256"
        },
        {
          "internalType": "uint256",
          "name": "approvals",
          "type": "uint256"
        },
        {
          "internalType": "uint256",
          "name": "rejections",
          "type": "uint256"
        },
        {
          "internalType": "bool",
          "name": "executed",
          "type": "bool"
        }
      ],
      "stateMutability": "view",
      "type": "function"
    },
    {
      "inputs": [
        {
          "internalType": "address",
          "name": "_charity",
          "type": "address"
        }
      ],
      "name": "getCharityBalance",
      "outputs": [
        {
          "internalType": "uint256",
          "name": "",
          "type": "uint256"
        }
      ],
      "stateMutability": "view",
      "type": "function"
    },
    {
      "inputs": [],
      "name": "getRegisteredCharities",
      "outputs": [
        {
          "internalType": "address[]",
          "name": "",
          "type": "address[]"
        }
      ],
      "stateMutability": "view",
      "type": "function"
    },
    {
      "inputs": [
        {
          "internalType": "address",
          "name": "_charity",
          "type": "address"
        }
      ],
      "name": "getWithdrawalHistory",
      "outputs": [
        {
          "components": [
            {
              "internalType": "uint256",
              "name": "amount",
              "type": "uint256"
            },
            {
              "internalType": "uint256",
              "name": "timestamp",
              "type": "uint256"
            }
          ],
          "internalType": "struct CharityDonation.Withdrawal[]",
          "name": "",
          "type": "tuple[]"
        }
      ],
      "stateMutability": "view",
      "type": "function"
    },
    {
      "inputs": [],
      "name": "isPaused",
      "outputs": [
        {
          "internalType": "bool",
          "name": "",
          "type": "bool"
        }
      ],
      "stateMutability": "view",
      "type": "function"
    },
    {
      "inputs": [],
      "name": "owner",
      "outputs": [
        {
          "internalType": "address",
          "name": "",
          "type": "address"
        }
      ],
      "stateMutability": "view",
      "type": "function"
    },
    {
      "inputs": [
        {
          "internalType": "string",
          "name": "_name",
          "type": "string"
        },
        {
          "internalType": "address payable",
          "name": "_charityWallet",
          "type": "address"
        }
      ],
      "name": "registerCharity",
      "outputs": [],
      "stateMutability": "nonpayable",
      "type": "function"
    },
    {
      "inputs": [
        {
          "internalType": "uint256",
          "name": "",
          "type": "uint256"
        }
      ],
      "name": "registeredCharities",
      "outputs": [
        {
          "internalType": "address",
          "name": "",
          "type": "address"
        }
      ],
      "stateMutability": "view",
      "type": "function"
    },
    {
      "inputs": [],
      "name": "togglePause",
      "outputs": [],
      "stateMutability": "nonpayable",
      "type": "function"
    },
    {
      "inputs": [
        {
          "internalType": "uint256",
          "name": "_requestId",
          "type": "uint256"
        },
        {
          "internalType": "bool",
          "name": "_approve",
          "type": "bool"
        }
      ],
      "name": "voteOnFundRequest",
      "outputs": [],
      "stateMutability": "nonpayable",
      "type": "function"
    },
    {
      "inputs": [
        {
          "internalType": "address",
          "name": "",
          "type": "address"
        },
        {
          "internalType": "uint256",
          "name": "",
          "type": "uint256"
        }
      ],
      "name": "withdrawalHistory",
      "outputs": [
        {
          "internalType": "uint256",
          "name": "amount",
          "type": "uint256"
        },
        {
          "internalType": "uint256",
          "name": "timestamp",
          "type": "uint256"
        }
      ],
      "stateMutability": "view",
      "type": "function"
    }
  ],
  "bytecode": "0x608060405260008060146101000a81548160ff021916908315150217905550600060065534801561002f57600080fd5b50336000806101000a81548173ffffffffffffffffffffffffffffffffffffffff021916908373ffffffffffffffffffffffffffffffffffffffff1602179055506127d68061007f6000396000f3fe6080604052600436106100fd5760003560e01c80636eed41ec116100955780639721edb9116100645780639721edb91461037a578063b187bd26146103a5578063c4ae3168146103d0578063c561c6fe146103e7578063c929c61814610410576100fd565b80636eed41ec146102bc5780637aed7746146102e557806380ee37fa1461030e5780638da5cb5b1461034f576100fd565b80633500287d116100d15780633500287d146101c757806336a0abcb146102045780634a56c9a71461024157806351076f141461027f576100fd565b8062362a95146101025780632478239a1461011e578063258c896f1461015f5780633114740e1461018a575b600080fd5b61011c6004803603810190610117919061172c565b610439565b005b34801561012a57600080fd5b506101456004803603810190610140919061172c565b6106af565b60405161015695949392919061183e565b60405180910390f35b34801561016b57600080fd5b5061017461079a565b6040516101819190611956565b60405180910390f35b34801561019657600080fd5b506101b160048036038101906101ac919061172c565b610828565b6040516101be9190611a65565b60405180910390f35b3480156101d357600080fd5b506101ee60048036038101906101e9919061172c565b6108da565b6040516101fb9190611a87565b60405180910390f35b34801561021057600080fd5b5061022b60048036038101906102269190611aa2565b610973565b6040516102389190611a87565b60405180910390f35b34801561024d57600080fd5b5061026860048036038101906102639190611b0e565b610998565b604051610276929190611b4e565b60405180910390f35b34801561028b57600080fd5b506102a660048036038101906102a19190611b77565b6109d9565b6040516102b39190611bb3565b60405180910390f35b3480156102c857600080fd5b506102e360048036038101906102de9190611b77565b610a18565b005b3480156102f157600080fd5b5061030c60048036038101906103079190611d2f565b610d3d565b005b34801561031a57600080fd5b5061033560048036038101906103309190611b77565b611025565b604051610346959493929190611d8b565b60405180910390f35b34801561035b57600080fd5b50610364611088565b6040516103719190611bb3565b60405180910390f35b34801561038657600080fd5b5061038f6110ac565b60405161039c9190611a87565b60405180910390f35b3480156103b157600080fd5b506103ba6110b2565b6040516103c79190611dde565b60405180910390f35b3480156103dc57600080fd5b506103e56110c5565b005b3480156103f357600080fd5b5061040e60048036038101906104099190611e25565b61117f565b005b34801561041c57600080fd5b5061043760048036038101906104329190611b77565b61144a565b005b600060149054906101000a900460ff1615610489576040517f08c379a000000000000000000000000000000000000000000000000000000000815260040161048090611eb1565b60405180910390fd5b600034116104cc576040517f08c379a00000000000000000000000000000000000000000000000000000000081526004016104c390611f1d565b60405180910390fd5b600160008273ffffffffffffffffffffffffffffffffffffffff1673ffffffffffffffffffffffffffffffffffffffff16815260200190815260200160002060040160009054906101000a900460ff1661055b576040517f08c379a000000000000000000000000000000000000000000000000000000000815260040161055290611f89565b60405180910390fd5b34600260003373ffffffffffffffffffffffffffffffffffffffff1673ffffffffffffffffffffffffffffffffffffffff16815260200190815260200160002060008373ffffffffffffffffffffffffffffffffffffffff1673ffffffffffffffffffffffffffffffffffffffff16815260200190815260200160002060008282546105e79190611fd8565b9250508190555034600160008373ffffffffffffffffffffffffffffffffffffffff1673ffffffffffffffffffffffffffffffffffffffff16815260200190815260200160002060020160008282546106409190611fd8565b925050819055508073ffffffffffffffffffffffffffffffffffffffff163373ffffffffffffffffffffffffffffffffffffffff167f509fb5d764cf5e98b9f02a3d86350f8085cedb516140098d2d6fc2eb6256ac24346040516106a49190611a87565b60405180910390a350565b60016020528060005260406000206000915090508060000180546106d29061203b565b80601f01602080910402602001604051908101604052809291908181526020018280546106fe9061203b565b801561074b5780601f106107205761010080835404028352916020019161074b565b820191906000526020600020905b81548152906001019060200180831161072e57829003601f168201915b5050505050908060010160009054906101000a900473ffffffffffffffffffffffffffffffffffffffff16908060020154908060030154908060040160009054906101000a900460ff16905085565b6060600580548060200260200160405190810160405280929190818152602001828054801561081e57602002820191906000526020600020905b8160009054906101000a900473ffffffffffffffffffffffffffffffffffffffff1673ffffffffffffffffffffffffffffffffffffffff16815260200190600101908083116107d4575b5050505050905090565b6060600360008373ffffffffffffffffffffffffffffffffffffffff1673ffffffffffffffffffffffffffffffffffffffff168152602001908152602001600020805480602002602001604051908101604052809291908181526020016000905b828210156108cf57838290600052602060002090600202016040518060400160405290816000820154815260200160018201548152505081526020019060010190610889565b505050509050919050565b6000600160008373ffffffffffffffffffffffffffffffffffffffff1673ffffffffffffffffffffffffffffffffffffffff16815260200190815260200160002060030154600160008473ffffffffffffffffffffffffffffffffffffffff1673ffffffffffffffffffffffffffffffffffffffff1681526020019081526020016000206002015461096c919061206c565b9050919050565b6002602052816000526040600020602052806000526040600020600091509150505481565b600360205281600052604060002081815481106109b457600080fd5b9060005260206000209060020201600091509150508060000154908060010154905082565b600581815481106109e957600080fd5b906000526020600020016000915054906101000a900473ffffffffffffffffffffffffffffffffffffffff1681565b600060149054906101000a900460ff1615610a68576040517f08c379a0000000000000000000000000000000000000000000000000000000008152600401610a5f90611eb1565b60405180910390fd5b60006004600083815260200190815260200160002090508060040160009054906101000a900460ff1615610ad1576040517f08c379a0000000000000000000000000000000000000000000000000000000008152600401610ac8906120ec565b60405180910390fd5b8060030154816002015411610b1b576040517f08c379a0000000000000000000000000000000000000000000000000000000008152600401610b1290612158565b60405180910390fd5b8060010154610b4d8260000160009054906101000a900473ffffffffffffffffffffffffffffffffffffffff166108da565b1015610b8e576040517f08c379a0000000000000000000000000000000000000000000000000000000008152600401610b85906121c4565b60405180910390fd5b60018160040160006101000a81548160ff021916908315150217905550600160008260000160009054906101000a900473ffffffffffffffffffffffffffffffffffffffff1673ffffffffffffffffffffffffffffffffffffffff1673ffffffffffffffffffffffffffffffffffffffff16815260200190815260200160002060010160009054906101000a900473ffffffffffffffffffffffffffffffffffffffff1673ffffffffffffffffffffffffffffffffffffffff166108fc82600101549081150290604051600060405180830381858888f19350505050158015610c7b573d6000803e3d6000fd5b508060010154600160008360000160009054906101000a900473ffffffffffffffffffffffffffffffffffffffff1673ffffffffffffffffffffffffffffffffffffffff1673ffffffffffffffffffffffffffffffffffffffff1681526020019081526020016000206003016000828254610cf69190611fd8565b92505081905550817f282d07188430985847eedb80c0cb5af1df132e28082dea8a753b84705f5a7bd38260010154604051610d319190611a87565b60405180910390a25050565b60008054906101000a900473ffffffffffffffffffffffffffffffffffffffff1673ffffffffffffffffffffffffffffffffffffffff163373ffffffffffffffffffffffffffffffffffffffff1614610dcb576040517f08c379a0000000000000000000000000000000000000000000000000000000008152600401610dc290612256565b60405180910390fd5b600160008273ffffffffffffffffffffffffffffffffffffffff1673ffffffffffffffffffffffffffffffffffffffff16815260200190815260200160002060040160009054906101000a900460ff1615610e5b576040517f08c379a0000000000000000000000000000000000000000000000000000000008152600401610e52906122c2565b60405180910390fd5b6040518060a001604052808381526020018273ffffffffffffffffffffffffffffffffffffffff168152602001600081526020016000815260200160011515815250600160008373ffffffffffffffffffffffffffffffffffffffff1673ffffffffffffffffffffffffffffffffffffffff1681526020019081526020016000206000820151816000019081610ef1919061248e565b5060208201518160010160006101000a81548173ffffffffffffffffffffffffffffffffffffffff021916908373ffffffffffffffffffffffffffffffffffffffff160217905550604082015181600201556060820151816003015560808201518160040160006101000a81548160ff0219169083151502179055509050506005819080600181540180825580915050600190039060005260206000200160009091909190916101000a81548173ffffffffffffffffffffffffffffffffffffffff021916908373ffffffffffffffffffffffffffffffffffffffff1602179055508073ffffffffffffffffffffffffffffffffffffffff167fe68fc0f6644db69f95f4290aa902a3275ab2fc0d43c4e893ab676b3452444a1b836040516110199190612560565b60405180910390a25050565b60046020528060005260406000206000915090508060000160009054906101000a900473ffffffffffffffffffffffffffffffffffffffff16908060010154908060020154908060030154908060040160009054906101000a900460ff16905085565b60008054906101000a900473ffffffffffffffffffffffffffffffffffffffff1681565b60065481565b600060149054906101000a900460ff1681565b60008054906101000a900473ffffffffffffffffffffffffffffffffffffffff1673ffffffffffffffffffffffffffffffffffffffff163373ffffffffffffffffffffffffffffffffffffffff1614611153576040517f08c379a000000000000000000000000000000000000000000000000000000000815260040161114a90612256565b60405180910390fd5b600060149054906101000a900460ff1615600060146101000a81548160ff021916908315150217905550565b600060149054906101000a900460ff16156111cf576040517f08c379a00000000000000000000000000000000000000000000000000000000081526004016111c690611eb1565b60405180910390fd5b60006004600084815260200190815260200160002090508060050160003373ffffffffffffffffffffffffffffffffffffffff1673ffffffffffffffffffffffffffffffffffffffff16815260200190815260200160002060009054906101000a900460ff1615611275576040517f08c379a000000000000000000000000000000000000000000000000000000000815260040161126c906125ce565b60405180910390fd5b6000600260003373ffffffffffffffffffffffffffffffffffffffff1673ffffffffffffffffffffffffffffffffffffffff16815260200190815260200160002060008360000160009054906101000a900473ffffffffffffffffffffffffffffffffffffffff1673ffffffffffffffffffffffffffffffffffffffff1673ffffffffffffffffffffffffffffffffffffffff1681526020019081526020016000205411611358576040517f08c379a000000000000000000000000000000000000000000000000000000000815260040161134f9061263a565b60405180910390fd5b60018160050160003373ffffffffffffffffffffffffffffffffffffffff1673ffffffffffffffffffffffffffffffffffffffff16815260200190815260200160002060006101000a81548160ff02191690831515021790555081156113d95760018160020160008282546113cd9190611fd8565b925050819055506113f6565b60018160030160008282546113ee9190611fd8565b925050819055505b3373ffffffffffffffffffffffffffffffffffffffff16837fc920c78aaf8a52a043e84f709f6fce1e077e681ca9c8dd30ea26a0bfc361a5548460405161143d9190611dde565b60405180910390a3505050565b600160003373ffffffffffffffffffffffffffffffffffffffff1673ffffffffffffffffffffffffffffffffffffffff16815260200190815260200160002060040160009054906101000a900460ff166114d9576040517f08c379a00000000000000000000000000000000000000000000000000000000081526004016114d0906126cc565b60405180910390fd5b600060149054906101000a900460ff1615611529576040517f08c379a000000000000000000000000000000000000000000000000000000000815260040161152090611eb1565b60405180910390fd5b6000811161156c576040517f08c379a000000000000000000000000000000000000000000000000000000000815260040161156390612738565b60405180910390fd5b80611576336108da565b10156115b7576040517f08c379a00000000000000000000000000000000000000000000000000000000081526004016115ae906121c4565b60405180910390fd5b600660008154809291906115ca90612758565b919050555060006004600060065481526020019081526020016000209050338160000160006101000a81548173ffffffffffffffffffffffffffffffffffffffff021916908373ffffffffffffffffffffffffffffffffffffffff160217905550818160010181905550600081600201819055506000816003018190555060008160040160006101000a81548160ff0219169083151502179055503373ffffffffffffffffffffffffffffffffffffffff166006547f8acbeb02ecd339f2d047e88b359f71c077fd4870e5c1eb3dda0767d6f81cd3fa846040516116ae9190611a87565b60405180910390a35050565b6000604051905090565b600080fd5b600080fd5b600073ffffffffffffffffffffffffffffffffffffffff82169050919050565b60006116f9826116ce565b9050919050565b611709816116ee565b811461171457600080fd5b50565b60008135905061172681611700565b92915050565b600060208284031215611742576117416116c4565b5b600061175084828501611717565b91505092915050565b600081519050919050565b600082825260208201905092915050565b60005b83811015611793578082015181840152602081019050611778565b60008484015250505050565b6000601f19601f8301169050919050565b60006117bb82611759565b6117c58185611764565b93506117d5818560208601611775565b6117de8161179f565b840191505092915050565b60006117f4826116ce565b9050919050565b611804816117e9565b82525050565b6000819050919050565b61181d8161180a565b82525050565b60008115159050919050565b61183881611823565b82525050565b600060a082019050818103600083015261185881886117b0565b905061186760208301876117fb565b6118746040830186611814565b6118816060830185611814565b61188e608083018461182f565b9695505050505050565b600081519050919050565b600082825260208201905092915050565b6000819050602082019050919050565b6118cd816116ee565b82525050565b60006118df83836118c4565b60208301905092915050565b6000602082019050919050565b600061190382611898565b61190d81856118a3565b9350611918836118b4565b8060005b8381101561194957815161193088826118d3565b975061193b836118eb565b92505060018101905061191c565b5085935050505092915050565b6000602082019050818103600083015261197081846118f8565b905092915050565b600081519050919050565b600082825260208201905092915050565b6000819050602082019050919050565b6119ad8161180a565b82525050565b6040820160008201516119c960008501826119a4565b5060208201516119dc60208501826119a4565b50505050565b60006119ee83836119b3565b60408301905092915050565b6000602082019050919050565b6000611a1282611978565b611a1c8185611983565b9350611a2783611994565b8060005b83811015611a58578151611a3f88826119e2565b9750611a4a836119fa565b925050600181019050611a2b565b5085935050505092915050565b60006020820190508181036000830152611a7f8184611a07565b905092915050565b6000602082019050611a9c6000830184611814565b92915050565b60008060408385031215611ab957611ab86116c4565b5b6000611ac785828601611717565b9250506020611ad885828601611717565b9150509250929050565b611aeb8161180a565b8114611af657600080fd5b50565b600081359050611b0881611ae2565b92915050565b60008060408385031215611b2557611b246116c4565b5b6000611b3385828601611717565b9250506020611b4485828601611af9565b9150509250929050565b6000604082019050611b636000830185611814565b611b706020830184611814565b9392505050565b600060208284031215611b8d57611b8c6116c4565b5b6000611b9b84828501611af9565b91505092915050565b611bad816116ee565b82525050565b6000602082019050611bc86000830184611ba4565b92915050565b600080fd5b600080fd5b7f4e487b7100000000000000000000000000000000000000000000000000000000600052604160045260246000fd5b611c108261179f565b810181811067ffffffffffffffff82111715611c2f57611c2e611bd8565b5b80604052505050565b6000611c426116ba565b9050611c4e8282611c07565b919050565b600067ffffffffffffffff821115611c6e57611c6d611bd8565b5b611c778261179f565b9050602081019050919050565b82818337600083830152505050565b6000611ca6611ca184611c53565b611c38565b905082815260208101848484011115611cc257611cc1611bd3565b5b611ccd848285611c84565b509392505050565b600082601f830112611cea57611ce9611bce565b5b8135611cfa848260208601611c93565b91505092915050565b611d0c816117e9565b8114611d1757600080fd5b50565b600081359050611d2981611d03565b92915050565b60008060408385031215611d4657611d456116c4565b5b600083013567ffffffffffffffff811115611d6457611d636116c9565b5b611d7085828601611cd5565b9250506020611d8185828601611d1a565b9150509250929050565b600060a082019050611da06000830188611ba4565b611dad6020830187611814565b611dba6040830186611814565b611dc76060830185611814565b611dd4608083018461182f565b9695505050505050565b6000602082019050611df3600083018461182f565b92915050565b611e0281611823565b8114611e0d57600080fd5b50565b600081359050611e1f81611df9565b92915050565b60008060408385031215611e3c57611e3b6116c4565b5b6000611e4a85828601611af9565b9250506020611e5b85828601611e10565b9150509250929050565b7f436f6e7472616374206973207061757365640000000000000000000000000000600082015250565b6000611e9b601283611764565b9150611ea682611e65565b602082019050919050565b60006020820190508181036000830152611eca81611e8e565b9050919050565b7f4d7573742073656e6420736f6d65204554480000000000000000000000000000600082015250565b6000611f07601283611764565b9150611f1282611ed1565b602082019050919050565b60006020820190508181036000830152611f3681611efa565b9050919050565b7f43686172697479206e6f74207265676973746572656400000000000000000000600082015250565b6000611f73601683611764565b9150611f7e82611f3d565b602082019050919050565b60006020820190508181036000830152611fa281611f66565b9050919050565b7f4e487b7100000000000000000000000000000000000000000000000000000000600052601160045260246000fd5b6000611fe38261180a565b9150611fee8361180a565b925082820190508082111561200657612005611fa9565b5b92915050565b7f4e487b7100000000000000000000000000000000000000000000000000000000600052602260045260246000fd5b6000600282049050600182168061205357607f821691505b6020821081036120665761206561200c565b5b50919050565b60006120778261180a565b91506120828361180a565b925082820390508181111561209a57612099611fa9565b5b92915050565b7f5265717565737420616c72656164792065786563757465640000000000000000600082015250565b60006120d6601883611764565b91506120e1826120a0565b602082019050919050565b60006020820190508181036000830152612105816120c9565b9050919050565b7f4e6f7420656e6f75676820617070726f76616c73000000000000000000000000600082015250565b6000612142601483611764565b915061214d8261210c565b602082019050919050565b6000602082019050818103600083015261217181612135565b9050919050565b7f4e6f7420656e6f75676820617661696c61626c652066756e6473000000000000600082015250565b60006121ae601a83611764565b91506121b982612178565b602082019050919050565b600060208201905081810360008301526121dd816121a1565b9050919050565b7f4f6e6c79206f776e65722063616e20706572666f726d2074686973206163746960008201527f6f6e000000000000000000000000000000000000000000000000000000000000602082015250565b6000612240602283611764565b915061224b826121e4565b604082019050919050565b6000602082019050818103600083015261226f81612233565b9050919050565b7f4368617269747920616c72656164792072656769737465726564000000000000600082015250565b60006122ac601a83611764565b91506122b782612276565b602082019050919050565b600060208201905081810360008301526122db8161229f565b9050919050565b60008190508160005260206000209050919050565b60006020601f8301049050919050565b600082821b905092915050565b6000600883026123447fffffffffffffffffffffffffffffffffffffffffffffffffffffffffffffffff82612307565b61234e8683612307565b95508019841693508086168417925050509392505050565b6000819050919050565b600061238b6123866123818461180a565b612366565b61180a565b9050919050565b6000819050919050565b6123a583612370565b6123b96123b182612392565b848454612314565b825550505050565b600090565b6123ce6123c1565b6123d981848461239c565b505050565b5b818110156123fd576123f26000826123c6565b6001810190506123df565b5050565b601f82111561244257612413816122e2565b61241c846122f7565b8101602085101561242b578190505b61243f612437856122f7565b8301826123de565b50505b505050565b600082821c905092915050565b600061246560001984600802612447565b1980831691505092915050565b600061247e8383612454565b9150826002028217905092915050565b61249782611759565b67ffffffffffffffff8111156124b0576124af611bd8565b5b6124ba825461203b565b6124c5828285612401565b600060209050601f8311600181146124f857600084156124e6578287015190505b6124f08582612472565b865550612558565b601f198416612506866122e2565b60005b8281101561252e57848901518255600182019150602085019450602081019050612509565b8683101561254b5784890151612547601f891682612454565b8355505b6001600288020188555050505b505050505050565b6000602082019050818103600083015261257a81846117b0565b905092915050565b7f596f75206861766520616c726561647920766f74656400000000000000000000600082015250565b60006125b8601683611764565b91506125c382612582565b602082019050919050565b600060208201905081810360008301526125e7816125ab565b9050919050565b7f4f6e6c7920646f6e6f72732063616e20766f7465000000000000000000000000600082015250565b6000612624601483611764565b915061262f826125ee565b602082019050919050565b6000602082019050818103600083015261265381612617565b9050919050565b7f4f6e6c792072656769737465726564206368617269746965732063616e20726560008201527f71756573742066756e6473000000000000000000000000000000000000000000602082015250565b60006126b6602b83611764565b91506126c18261265a565b604082019050919050565b600060208201905081810360008301526126e5816126a9565b9050919050565b7f416d6f756e74206d7573742062652067726561746572207468616e2030000000600082015250565b6000612722601d83611764565b915061272d826126ec565b602082019050919050565b6000602082019050818103600083015261275181612715565b9050919050565b60006127638261180a565b91507fffffffffffffffffffffffffffffffffffffffffffffffffffffffffffffffff820361279557612794611fa9565b5b60018201905091905056fea26469706673582212204c001a8557875cc6c172f9e8b6c5b543a7b4a0ec5137449037fec91b924c052264736f6c63430008140033",
  "linkReferences": {},
  "deployedLinkReferences": {}
}